:020000040000FA
:100000000C9462000C948A000C948A000C948A0070
:100010000C948A000C948A000C948A000C948A0038
:100020000C948A000C948A000C948A000C948A0028
:100030000C948A000C948A000C948A000C948A0018
:100040000C9411040C948A000C94DF030C94B903F3
:100050000C948A000C948A000C948A000C948A00F8
:100060000C948A000C948A000000000024002700F1
:100070002A0000000000250028002B0000000000DE
:1000800023002600290004040404040404040202DA
:100090000202020203030303030301020408102007
:1000A0004080010204081020010204081020000012
:1000B0000008000201000003040700000000000027
:1000C00000005B0411241FBECFEFD8E0DEBFCDBF20
:1000D00011E0A0E0B1E0E8E7FDE002C005900D927C
:1000E000A833B107D9F722E0A8E3B1E001C01D921F
:1000F000A336B207E1F710E0C2E6D0E004C02197D2
:10010000FE010E94B406C136D107C9F70E94E90476
:100110000C94BA060C94000096E0899FD00111243B
:10012000AC50BE4F90967C936E935F9791E0919602
:100130009C939197E0916102F0916202909160022C
:10014000992339F0309751F0811108C08091100245
:100150000994309719F05C968C91FACF0895CF925C
:10016000DF92EF92FF920F931F9396E0899FF00129
:100170001124EC50FE4F11A2278D30A12130310502
:1001800051F178F02230310509F451C023303105A6
:1001900009F452C01F910F91FF90EF90DF90CF9024
:1001A00008956623B9F361E070E00E948C002FB7D8
:1001B000F8948091530190915401A0915501B09110
:1001C00056012FBF80934C0290934D02A0934E0294
:1001D000B0934F02DFCF9FB7F894C0905301D090F7
:1001E0005401E0905501F09056019FBF00914C02E0
:1001F00010914D0220914E0230914F02C01AD10A47
:10020000E20AF30A00915E0210915F0230E020E002
:100210000C151D052E053F0550F462E070E01F919E
:100220000F91FF90EF90DF90CF900C948C006111B4
:10023000B1CF63E070E0F3CF70E060E0F0CFAF9259
:10024000BF92CF92DF92EF92FF920F931F93CF93C3
:10025000DF936C017B018B01040F151FEB015E0125
:10026000AE18BF08C017D10759F06991D601ED91BA
:10027000FC910190F081E02DC6010995892B79F759
:10028000C501DF91CF911F910F91FF90EF90DF900B
:10029000CF90BF90AF900895FC01538D448D252FD2
:1002A00030E0842F90E0821B930B541710F0CF9610
:1002B000089501970895FC01918D828D981761F042
:1002C000A28DAE0FBF2FB11D5D968C91928D9F5F59
:1002D0009F73928F90E008958FEF9FEF0895FC0138
:1002E000918D828D981731F0828DE80FF11D858DEB
:1002F00090E008958FEF9FEF0895FC01918D228D7E
:10030000892F90E0805C9F4F821B91098F73992702
:10031000089587E591E00E947D0121E0892B09F491
:1003200020E0822F089580E090E0892B29F00E9440
:10033000890181110C9400000895FC01A48DA80F7F
:10034000B92FB11DA35ABF4F2C91848D90E0019617
:100350008F739927848FA689B7892C93A089B18937
:100360008C91837080648C93938D848D981306C0D8
:100370000288F389E02D80818F7D80830895EF923C
:10038000FF920F931F93CF93DF93EC0181E0888F4F
:100390009B8D8C8D98131AC0E889F989808185FF1F
:1003A00015C09FB7F894EE89FF896083E889F989C1
:1003B00080818370806480839FBF81E090E0DF91C3
:1003C000CF911F910F91FF90EF900895F62E0B8D16
:1003D00010E00F5F1F4F0F731127E02E8C8D8E11D1
:1003E0000CC00FB607FCFACFE889F989808185FF38
:1003F000F5CFCE010E949D01F1CFEB8DEC0FFD2FCB
:10040000F11DE35AFF4FF0829FB7F8940B8FEA89F2
:10041000FB8980818062CFCFCF93DF93EC01888D01
:100420008823B9F0AA89BB89E889F9898C9185FD6F
:1004300003C0808186FD0DC00FB607FCF7CF8C91FD
:1004400085FFF2CF808185FFEDCFCE010E949D0117
:10045000E9CFDF91CF910895833081F028F4813086
:1004600099F08230A9F008958730A9F08830C9F05A
:100470008430B1F4809180008F7D03C08091800032
:100480008F7780938000089584B58F7784BD089519
:1004900084B58F7DFBCF8091B0008F778093B000C3
:1004A00008958091B0008F7DF9CFCF93DF93282FEF
:1004B00030E0F901E255FF4F8491F901E656FF4F14
:1004C000D491F901EA57FF4FC491CC23A1F08111D7
:1004D0000E942C02EC2FF0E0EE0FFF1FE458FF4FBC
:1004E000A591B491EC91ED2381E090E009F480E0D6
:1004F000DF91CF91089580E090E0FACF862F0C94A1
:1005000055021F93CF93DF93282F30E0F901E25576
:10051000FF4F8491F901E656FF4FD491F901EA5754
:10052000FF4FC491CC23A9F0162F81110E942C02F9
:10053000EC2FF0E0EE0FFF1FEE58FF4FA591B491A6
:100540008FB7F894EC91111108C0D095DE23DC939D
:100550008FBFDF91CF911F910895DE2BF8CF862FAB
:10056000642F0C948102CF93DF9390E0FC01E65658
:10057000FF4F24918A579F4FFC0184918823C9F033
:1005800090E0880F991FFC01E859FF4FA591B491A5
:10059000FC01EE58FF4FC591D49161110DC09FB77A
:1005A000F8948C91209582238C938881282328832A
:1005B0009FBFDF91CF910895623051F49FB7F894B7
:1005C0003C91822F809583238C93E8812E2BEFCF53
:1005D0008FB7F894EC912E2B2C938FBFEACF862FF8
:1005E000642F0C94B3023FB7F89480914F0190911F
:1005F0005001A0915101B091520126B5A89B05C0B0
:100600002F3F19F00196A11DB11D3FBFBA2FA92F91
:10061000982F8827BC01CD01620F711D811D911D8E
:1006200042E0660F771F881F991F4A95D1F70895FA
:10063000CF93DF93FC0101900020E9F73197AF01E0
:10064000481B590BBC0187E591E00E941F01EC019A
:1006500042E050E06FE271E087E591E00E941F0107
:100660008C0F9D1FDF91CF9108958F929F92AF9233
:10067000BF92CF92DF92EF92FF92209113023091BE
:1006800014022130310569F02230310509F46EC0C1
:10069000FF90EF90DF90CF90BF90AF909F908F90A2
:1006A00008958A32B9F480913A01882339F0EAE357
:1006B000F1E001900020E9F7329710828AE391E09F
:1006C000FF90EF90DF90CF90BF90AF909F908F9072
:1006D0000C9418038332A9F561E08DE00E94810239
:1006E0000E94F3024B015C0188EEC82E83E0D82EF5
:1006F000E12CF12C0E94F302681979098A099B09FF
:10070000683E734081059105A8F321E0C21AD10823
:10071000E108F10888EE880E83E0981EA11CB11C48
:10072000C114D104E104F10429F760E08DE0FF90E9
:10073000EF90DF90CF90BF90AF909F908F900C94F0
:100740008102E0913801F0913901E65CFE4F80832F
:100750008AE391E00E941803809138019091390159
:100760000196909339018093380192CF82E391E012
:10077000A7CF1F920F920FB60F9211242F933F9382
:100780004F935F936F937F938F939F93AF93BF9399
:10079000EF93FF9387E591E00E949D01FF91EF9118
:1007A000BF91AF919F918F917F916F915F914F9189
:1007B0003F912F910F900FBE0F901F9018951F9291
:1007C0000F920FB60F9211242F938F939F93EF9355
:1007D000FF93E0916701F09168018081E0916D01E4
:1007E000F0916E0182FD1BC09081809170018F5F3E
:1007F0008F7320917101821741F0E0917001F0E058
:10080000E95AFE4F958F80937001FF91EF919F9170
:100810008F912F910F900FBE0F901F901895808190
:10082000F4CF1F920F920FB60F9211242F933F9384
:100830008F939F93AF93BF938091530190915401F5
:10084000A0915501B091560130914E0123E0230F44
:100850002D3758F50196A11DB11D20934E018093AF
:10086000530190935401A0935501B0935601809188
:100870004F0190915001A0915101B0915201019608
:10088000A11DB11D80934F0190935001A093510180
:10089000B0935201BF91AF919F918F913F912F9152
:1008A0000F900FBE0F901F90189526E8230F029609
:1008B000A11DB11DD2CF10925A011092590188EE9C
:1008C00093E0A0E0B0E080935B0190935C01A09383
:1008D0005D01B0935E0187E191E0909358018093B0
:1008E000570185EC90E0909364018093630184EC60
:1008F00090E0909366018093650180EC90E0909386
:1009000068018093670181EC90E090936A01809385
:10091000690182EC90E090936C0180936B0186EC0E
:1009200090E090936E0180936D011092700110928F
:10093000710110927201109273011092F6011092DF
:10094000FA011092F9011092FB0189E291E0909373
:10095000F5018093F401E0E1F2E010821482138249
:100960001582369682E0EC34F807B9F783E091E01F
:10097000909357028093560280E091E09093590241
:100980008093580284E080935A0283E080935B0254
:1009900087E091E090935502809354028AE090E0C2
:1009A00090935D0280935C0284EF91E090935F02EC
:1009B00080935E02109262021092610210925002C5
:1009C0001092510210925202109253021092600241
:1009D0000895789484B5826084BD84B5816084BDB7
:1009E00085B5826085BD85B5816085BD80916E00CD
:1009F000816080936E0010928100809181008260FE
:100A0000809381008091810081608093810080913A
:100A100080008160809380008091B1008460809329
:100A2000B1008091B00081608093B00080917A0025
:100A3000846080937A0080917A00826080937A004B
:100A400080917A00816080937A0080917A0080683A
:100A500080937A001092C100E0916701F0916801E3
:100A600082E08083E0916301F09164011082E09163
:100A70006501F09166018FEC808310926F01E09127
:100A80006B01F0916C0186E08083E0916901F09147
:100A90006A01808180618083E0916901F0916A013F
:100AA000808188608083E0916901F0916A01808192
:100AB00080688083E0916901F0916A0180818F7D77
:100AC000808385E393E0909362028093610261E00A
:100AD0008DE00E94B302812C912C54018394222436
:100AE0002A94322C50E0652E50E0752E51E0509340
:100AF00060028FB7F8944091530150915401609176
:100B00005501709156018FBF809150029091510212
:100B1000A0915202B0915302481B590B6A0B7B0BF8
:100B200080915C0290915D02B0E0A0E0C0E084178B
:100B30009507A607B70760F0109260026114710470
:100B4000A9F20E948901882389F20E940000CECF79
:100B500080915A02C81760F4E0915602F091570252
:100B6000EC0FF11D62E080810E94B302CF5FF0CFF5
:100B7000512C80915B02581608F05FC0052D10E0E3
:100B8000E0915802F0915902E00FF11F61E080817D
:100B90000E94B302E0915802F0915902E00FF11F58
:100BA00060E080810E948102D501C401052C04C04F
:100BB000880F991FAA1FBB1F0A94D2F76C017C01F2
:100BC000E094F094412C80915A024816F8F4C42D18
:100BD000D0E0E0915602F0915702EC0FFD1F8081AA
:100BE0000E9455022496CC0FDD1FCC50DE4F892B7E
:100BF00041F4888199818C299D2999838883439424
:100C0000E2CF888199818E219F21F7CFE091580210
:100C1000F0915902E00FF11F61E080810E94810292
:100C20008091580290915902080F191F60E0F80155
:100C300080810E94B30253949CCFC4EFD1E0FE01A7
:100C4000878D90A1892B21F4148E368E258E11A2CA
:100C5000369652E0E033F50799F710E080915A029A
:100C6000181708F053C000E0E12EF12CEE0CFF1C29
:100C7000C70184509E4F7C0120915B02021708F04F
:100C800043C0F70160817181002E02C0769567959F
:100C90000A94E2F7129F90011124200F311DE4EF16
:100CA000F1E080E0458D568D2417350709F45AC0D0
:100CB0008F5F36968A30B1F760FF24C0E4EFF1E031
:100CC00090E080E0448D411118C0E0915402F09111
:100CD0005502E20FF31F408156E0589FF001599FE3
:100CE000F00D1124EC50FE4F448F368F258F10A24B
:100CF000178E61E00E94AF0005C0019636968A30DB
:100D0000910501F70F5FB8CF1F5FA8CF80E099A1D1
:100D10009111892F269692E0C033D907C1F79FB76A
:100D2000F894409153015091540160915501709194
:100D300056019FBF4093500250935102609352025C
:100D400070935302882309F4F7CE8091150288230B
:100D500009F4F2CE8091130290911402019709F0E8
:100D6000EBCEECCE6170C6CFEE0FFF1F0590F49175
:100D7000E02D0994F894FFCF08070605040302311B
:100D800032333435363738392A302300000000BF7B
:100D9000011F014C010C027D015B016F010000008D
:100DA00000EF02AF027E020D0A0048454C440000ED
:107E0000112484B714BE81FFF0D085E080938100F7
:107E100082E08093C00088E18093C10086E0809377
:107E2000C20080E18093C4008EE0C9D0259A86E02C
:107E300020E33CEF91E0309385002093840096BBD3
:107E4000B09BFECF1D9AA8958150A9F7CC24DD24C4
:107E500088248394B5E0AB2EA1E19A2EF3E0BF2EE7
:107E6000A2D0813461F49FD0082FAFD0023811F036
:107E7000013811F484E001C083E08DD089C08234E0
:107E800011F484E103C0853419F485E0A6D080C0E4
:107E9000853579F488D0E82EFF2485D0082F10E0AE
:107EA000102F00270E291F29000F111F8ED06801E7
:107EB0006FC0863521F484E090D080E0DECF843638
:107EC00009F040C070D06FD0082F6DD080E0C81688
:107ED00080E7D80618F4F601B7BEE895C0E0D1E017
:107EE00062D089930C17E1F7F0E0CF16F0E7DF06D8
:107EF00018F0F601B7BEE89568D007B600FCFDCFD4
:107F0000A601A0E0B1E02C9130E011968C91119780
:107F100090E0982F8827822B932B1296FA010C0160
:107F200087BEE89511244E5F5F4FF1E0A038BF0790
:107F300051F7F601A7BEE89507B600FCFDCF97BE46
:107F4000E89526C08437B1F42ED02DD0F82E2BD052
:107F50003CD0F601EF2C8F010F5F1F4F84911BD097
:107F6000EA94F801C1F70894C11CD11CFA94CF0C13
:107F7000D11C0EC0853739F428D08EE10CD085E9AC
:107F80000AD08FE07ACF813511F488E018D01DD067
:107F900080E101D065CF982F8091C00085FFFCCF94
:107FA0009093C60008958091C00087FFFCCF809118
:107FB000C00084FD01C0A8958091C6000895E0E648
:107FC000F0E098E1908380830895EDDF803219F02E
:107FD00088E0F5DFFFCF84E1DECF1F93182FE3DFCA
:107FE0001150E9F7F2DF1F91089580E0E8DFEE27F6
:047FF000FF270994CA
:027FFE00040479
:00000001FF
